{
  "contractName": "NFTMarket",
  "abi": [
    {
      "inputs": [],
      "stateMutability": "nonpayable",
      "type": "constructor"
    },
    {
      "anonymous": false,
      "inputs": [
        {
          "indexed": true,
          "internalType": "uint256",
          "name": "itemId",
          "type": "uint256"
        },
        {
          "indexed": true,
          "internalType": "address",
          "name": "nftContract",
          "type": "address"
        },
        {
          "indexed": true,
          "internalType": "uint256",
          "name": "tokenId",
          "type": "uint256"
        },
        {
          "indexed": false,
          "internalType": "address",
          "name": "owner",
          "type": "address"
        },
        {
          "indexed": false,
          "internalType": "uint256",
          "name": "price",
          "type": "uint256"
        },
        {
          "indexed": false,
          "internalType": "bool",
          "name": "onSale",
          "type": "bool"
        }
      ],
      "name": "MarketItemCreated",
      "type": "event"
    },
    {
      "inputs": [],
      "name": "listingPrice",
      "outputs": [
        {
          "internalType": "uint256",
          "name": "",
          "type": "uint256"
        }
      ],
      "stateMutability": "view",
      "type": "function",
      "constant": true
    },
    {
      "inputs": [
        {
          "internalType": "address",
          "name": "nftContract",
          "type": "address"
        },
        {
          "internalType": "uint256",
          "name": "tokenId",
          "type": "uint256"
        },
        {
          "internalType": "uint256",
          "name": "price",
          "type": "uint256"
        }
      ],
      "name": "createItem",
      "outputs": [],
      "stateMutability": "payable",
      "type": "function",
      "payable": true
    },
    {
      "inputs": [],
      "name": "getItemList",
      "outputs": [
        {
          "components": [
            {
              "internalType": "uint256",
              "name": "itemId",
              "type": "uint256"
            },
            {
              "internalType": "address",
              "name": "nftContract",
              "type": "address"
            },
            {
              "internalType": "uint256",
              "name": "tokenId",
              "type": "uint256"
            },
            {
              "internalType": "uint256",
              "name": "price",
              "type": "uint256"
            },
            {
              "internalType": "bool",
              "name": "onSale",
              "type": "bool"
            }
          ],
          "internalType": "struct NFTMarket.MarketItem[]",
          "name": "",
          "type": "tuple[]"
        }
      ],
      "stateMutability": "view",
      "type": "function",
      "constant": true
    },
    {
      "inputs": [],
      "name": "getMyItemList",
      "outputs": [
        {
          "components": [
            {
              "internalType": "uint256",
              "name": "itemId",
              "type": "uint256"
            },
            {
              "internalType": "address",
              "name": "nftContract",
              "type": "address"
            },
            {
              "internalType": "uint256",
              "name": "tokenId",
              "type": "uint256"
            },
            {
              "internalType": "uint256",
              "name": "price",
              "type": "uint256"
            },
            {
              "internalType": "bool",
              "name": "onSale",
              "type": "bool"
            }
          ],
          "internalType": "struct NFTMarket.MarketItem[]",
          "name": "",
          "type": "tuple[]"
        }
      ],
      "stateMutability": "view",
      "type": "function",
      "constant": true
    },
    {
      "inputs": [
        {
          "internalType": "uint256",
          "name": "itemId",
          "type": "uint256"
        }
      ],
      "name": "getItemDetail",
      "outputs": [
        {
          "components": [
            {
              "internalType": "uint256",
              "name": "itemId",
              "type": "uint256"
            },
            {
              "internalType": "address",
              "name": "nftContract",
              "type": "address"
            },
            {
              "internalType": "uint256",
              "name": "tokenId",
              "type": "uint256"
            },
            {
              "internalType": "uint256",
              "name": "price",
              "type": "uint256"
            },
            {
              "internalType": "bool",
              "name": "onSale",
              "type": "bool"
            }
          ],
          "internalType": "struct NFTMarket.MarketItem",
          "name": "",
          "type": "tuple"
        }
      ],
      "stateMutability": "view",
      "type": "function",
      "constant": true
    },
    {
      "inputs": [
        {
          "internalType": "uint256",
          "name": "itemId",
          "type": "uint256"
        }
      ],
      "name": "buyItem",
      "outputs": [],
      "stateMutability": "payable",
      "type": "function",
      "payable": true
    },
    {
      "inputs": [
        {
          "internalType": "uint256",
          "name": "itemId",
          "type": "uint256"
        },
        {
          "internalType": "bool",
          "name": "_onSale",
          "type": "bool"
        }
      ],
      "name": "changeOnSaleStatus",
      "outputs": [],
      "stateMutability": "nonpayable",
      "type": "function"
    },
    {
      "inputs": [
        {
          "internalType": "uint256",
          "name": "itemId",
          "type": "uint256"
        },
        {
          "internalType": "uint256",
          "name": "_price",
          "type": "uint256"
        }
      ],
      "name": "changeSalePrice",
      "outputs": [],
      "stateMutability": "nonpayable",
      "type": "function"
    }
  ],
  "bytecode": "0x60806040526658d15e1762800060025534801561001b57600080fd5b5033600160006101000a81548173ffffffffffffffffffffffffffffffffffffffff021916908373ffffffffffffffffffffffffffffffffffffffff16021790555061190b8061006c6000396000f3fe60806040526004361061007b5760003560e01c8063c78f19f91161004e578063c78f19f91461012f578063c82e474b1461015a578063e2ce02fd14610183578063e7fb74c7146101ac5761007b565b8063063b2e5b1461008057806338009a0f146100ab5780635164b3b8146100d657806357baf0fb14610113575b600080fd5b34801561008c57600080fd5b506100956101c8565b6040516100a291906110f6565b60405180910390f35b3480156100b757600080fd5b506100c06103e6565b6040516100cd91906110f6565b60405180910390f35b3480156100e257600080fd5b506100fd60048036038101906100f89190611149565b6107e6565b60405161010a91906111de565b60405180910390f35b61012d60048036038101906101289190611225565b6108a2565b005b34801561013b57600080fd5b50610144610a77565b6040516101519190611287565b60405180910390f35b34801561016657600080fd5b50610181600480360381019061017c91906112a2565b610a7d565b005b34801561018f57600080fd5b506101aa60048036038101906101a5919061130e565b610adf565b005b6101c660048036038101906101c19190611149565b610b7b565b005b606060006101d66000610eff565b905060008060005b8381101561023d57600360006001836101f7919061137d565b815260200190815260200160002060040160009054906101000a900460ff161561022a578180610226906113d3565b9250505b8080610235906113d3565b9150506101de565b5060008167ffffffffffffffff81111561025a5761025961141c565b5b60405190808252806020026020018201604052801561029357816020015b610280610f23565b8152602001906001900390816102785790505b50905060005b848110156103db57600360006001836102b2919061137d565b815260200190815260200160002060040160009054906101000a900460ff16156103c85760006001826102e5919061137d565b90506000600360008381526020019081526020016000209050806040518060a0016040529081600082015481526020016001820160009054906101000a900473ffffffffffffffffffffffffffffffffffffffff1673ffffffffffffffffffffffffffffffffffffffff1673ffffffffffffffffffffffffffffffffffffffff16815260200160028201548152602001600382015481526020016004820160009054906101000a900460ff1615151515815250508487815181106103ac576103ab61144b565b5b602002602001018190525085806103c2906113d3565b96505050505b80806103d3906113d3565b915050610299565b508094505050505090565b606060006103f46000610eff565b905060008060005b8381101561054c57600060036000600184610417919061137d565b815260200190815260200160002060010160009054906101000a900473ffffffffffffffffffffffffffffffffffffffff1673ffffffffffffffffffffffffffffffffffffffff16636352211e60036000600186610475919061137d565b8152602001908152602001600020600201546040518263ffffffff1660e01b81526004016104a39190611287565b60206040518083038186803b1580156104bb57600080fd5b505afa1580156104cf573d6000803e3d6000fd5b505050506040513d601f19601f820116820180604052508101906104f3919061148f565b90503373ffffffffffffffffffffffffffffffffffffffff168173ffffffffffffffffffffffffffffffffffffffff161415610538578380610534906113d3565b9450505b508080610544906113d3565b9150506103fc565b5060008267ffffffffffffffff8111156105695761056861141c565b5b6040519080825280602002602001820160405280156105a257816020015b61058f610f23565b8152602001906001900390816105875790505b50905060005b848110156107db5760006001826105bf919061137d565b90506000600360006001856105d4919061137d565b815260200190815260200160002060010160009054906101000a900473ffffffffffffffffffffffffffffffffffffffff1673ffffffffffffffffffffffffffffffffffffffff16636352211e60036000600187610632919061137d565b8152602001908152602001600020600201546040518263ffffffff1660e01b81526004016106609190611287565b60206040518083038186803b15801561067857600080fd5b505afa15801561068c573d6000803e3d6000fd5b505050506040513d601f19601f820116820180604052508101906106b0919061148f565b90503373ffffffffffffffffffffffffffffffffffffffff168173ffffffffffffffffffffffffffffffffffffffff1614156107c6576000600360008481526020019081526020016000209050806040518060a0016040529081600082015481526020016001820160009054906101000a900473ffffffffffffffffffffffffffffffffffffffff1673ffffffffffffffffffffffffffffffffffffffff1673ffffffffffffffffffffffffffffffffffffffff16815260200160028201548152602001600382015481526020016004820160009054906101000a900460ff1615151515815250508587815181106107ab576107aa61144b565b5b602002602001018190525085806107c1906113d3565b965050505b505080806107d3906113d3565b9150506105a8565b508094505050505090565b6107ee610f23565b600360008381526020019081526020016000206040518060a0016040529081600082015481526020016001820160009054906101000a900473ffffffffffffffffffffffffffffffffffffffff1673ffffffffffffffffffffffffffffffffffffffff1673ffffffffffffffffffffffffffffffffffffffff16815260200160028201548152602001600382015481526020016004820160009054906101000a900460ff1615151515815250509050919050565b600081116108e5576040517f08c379a00000000000000000000000000000000000000000000000000000000081526004016108dc90611519565b60405180910390fd5b6002543414610929576040517f08c379a0000000000000000000000000000000000000000000000000000000008152600401610920906115ab565b60405180910390fd5b6109336000610f0d565b600061093f6000610eff565b90506040518060a001604052808281526020018573ffffffffffffffffffffffffffffffffffffffff16815260200184815260200183815260200160011515815250600360008381526020019081526020016000206000820151816000015560208201518160010160006101000a81548173ffffffffffffffffffffffffffffffffffffffff021916908373ffffffffffffffffffffffffffffffffffffffff160217905550604082015181600201556060820151816003015560808201518160040160006101000a81548160ff021916908315150217905550905050828473ffffffffffffffffffffffffffffffffffffffff16827f3a703684ac0e06cbc245a465cb3c43faf40a53aff175518595f6aac9d61afe6333866001604051610a69939291906115e9565b60405180910390a450505050565b60025481565b60008111610ac0576040517f08c379a0000000000000000000000000000000000000000000000000000000008152600401610ab790611519565b60405180910390fd5b8060036000848152602001908152602001600020600301819055505050565b6003600083815260200190815260200160002060040160009054906101000a900460ff1615158115151415610b49576040517f08c379a0000000000000000000000000000000000000000000000000000000008152600401610b4090611692565b60405180910390fd5b806003600084815260200190815260200160002060040160006101000a81548160ff0219169083151502179055505050565b600061271060fa6003600085815260200190815260200160002060030154610ba391906116b2565b610bad919061173b565b905060008134610bbd919061176c565b905060006003600085815260200190815260200160002060010160009054906101000a900473ffffffffffffffffffffffffffffffffffffffff1673ffffffffffffffffffffffffffffffffffffffff16636352211e60036000878152602001908152602001600020600201546040518263ffffffff1660e01b8152600401610c469190611287565b60206040518083038186803b158015610c5e57600080fd5b505afa158015610c72573d6000803e3d6000fd5b505050506040513d601f19601f82011682018060405250810190610c96919061148f565b905060036000858152602001908152602001600020600301543414610cf0576040517f08c379a0000000000000000000000000000000000000000000000000000000008152600401610ce790611812565b60405180910390fd5b3373ffffffffffffffffffffffffffffffffffffffff168173ffffffffffffffffffffffffffffffffffffffff161415610d5f576040517f08c379a0000000000000000000000000000000000000000000000000000000008152600401610d569061187e565b60405180910390fd5b8073ffffffffffffffffffffffffffffffffffffffff166108fc839081150290604051600060405180830381858888f19350505050158015610da5573d6000803e3d6000fd5b506003600085815260200190815260200160002060010160009054906101000a900473ffffffffffffffffffffffffffffffffffffffff1673ffffffffffffffffffffffffffffffffffffffff166323b872dd823360036000898152602001908152602001600020600201546040518463ffffffff1660e01b8152600401610e2f9392919061189e565b600060405180830381600087803b158015610e4957600080fd5b505af1158015610e5d573d6000803e3d6000fd5b5050505060006003600086815260200190815260200160002060040160006101000a81548160ff021916908315150217905550600160009054906101000a900473ffffffffffffffffffffffffffffffffffffffff1673ffffffffffffffffffffffffffffffffffffffff166108fc849081150290604051600060405180830381858888f19350505050158015610ef8573d6000803e3d6000fd5b5050505050565b600081600001549050919050565b6001816000016000828254019250508190555050565b6040518060a0016040528060008152602001600073ffffffffffffffffffffffffffffffffffffffff16815260200160008152602001600081526020016000151581525090565b600081519050919050565b600082825260208201905092915050565b6000819050602082019050919050565b6000819050919050565b610fa981610f96565b82525050565b600073ffffffffffffffffffffffffffffffffffffffff82169050919050565b6000610fda82610faf565b9050919050565b610fea81610fcf565b82525050565b60008115159050919050565b61100581610ff0565b82525050565b60a0820160008201516110216000850182610fa0565b5060208201516110346020850182610fe1565b5060408201516110476040850182610fa0565b50606082015161105a6060850182610fa0565b50608082015161106d6080850182610ffc565b50505050565b600061107f838361100b565b60a08301905092915050565b6000602082019050919050565b60006110a382610f6a565b6110ad8185610f75565b93506110b883610f86565b8060005b838110156110e95781516110d08882611073565b97506110db8361108b565b9250506001810190506110bc565b5085935050505092915050565b600060208201905081810360008301526111108184611098565b905092915050565b600080fd5b61112681610f96565b811461113157600080fd5b50565b6000813590506111438161111d565b92915050565b60006020828403121561115f5761115e611118565b5b600061116d84828501611134565b91505092915050565b60a08201600082015161118c6000850182610fa0565b50602082015161119f6020850182610fe1565b5060408201516111b26040850182610fa0565b5060608201516111c56060850182610fa0565b5060808201516111d86080850182610ffc565b50505050565b600060a0820190506111f36000830184611176565b92915050565b61120281610fcf565b811461120d57600080fd5b50565b60008135905061121f816111f9565b92915050565b60008060006060848603121561123e5761123d611118565b5b600061124c86828701611210565b935050602061125d86828701611134565b925050604061126e86828701611134565b9150509250925092565b61128181610f96565b82525050565b600060208201905061129c6000830184611278565b92915050565b600080604083850312156112b9576112b8611118565b5b60006112c785828601611134565b92505060206112d885828601611134565b9150509250929050565b6112eb81610ff0565b81146112f657600080fd5b50565b600081359050611308816112e2565b92915050565b6000806040838503121561132557611324611118565b5b600061133385828601611134565b9250506020611344858286016112f9565b9150509250929050565b7f4e487b7100000000000000000000000000000000000000000000000000000000600052601160045260246000fd5b600061138882610f96565b915061139383610f96565b9250827fffffffffffffffffffffffffffffffffffffffffffffffffffffffffffffffff038211156113c8576113c761134e565b5b828201905092915050565b60006113de82610f96565b91507fffffffffffffffffffffffffffffffffffffffffffffffffffffffffffffffff8214156114115761141061134e565b5b600182019050919050565b7f4e487b7100000000000000000000000000000000000000000000000000000000600052604160045260246000fd5b7f4e487b7100000000000000000000000000000000000000000000000000000000600052603260045260246000fd5b600081519050611489816111f9565b92915050565b6000602082840312156114a5576114a4611118565b5b60006114b38482850161147a565b91505092915050565b600082825260208201905092915050565b7f5072696365206d757374206265206174206c6561737420312077656900000000600082015250565b6000611503601c836114bc565b915061150e826114cd565b602082019050919050565b60006020820190508181036000830152611532816114f6565b9050919050565b7f5072696365206d75737420626520657175616c20746f206c697374696e67207060008201527f7269636500000000000000000000000000000000000000000000000000000000602082015250565b60006115956024836114bc565b91506115a082611539565b604082019050919050565b600060208201905081810360008301526115c481611588565b9050919050565b6115d481610fcf565b82525050565b6115e381610ff0565b82525050565b60006060820190506115fe60008301866115cb565b61160b6020830185611278565b61161860408301846115da565b949350505050565b7f537461747573206d757374206265206e6f7420657175616c206368616e67696e60008201527f6720737461747573000000000000000000000000000000000000000000000000602082015250565b600061167c6028836114bc565b915061168782611620565b604082019050919050565b600060208201905081810360008301526116ab8161166f565b9050919050565b60006116bd82610f96565b91506116c883610f96565b9250817fffffffffffffffffffffffffffffffffffffffffffffffffffffffffffffffff04831182151516156117015761170061134e565b5b828202905092915050565b7f4e487b7100000000000000000000000000000000000000000000000000000000600052601260045260246000fd5b600061174682610f96565b915061175183610f96565b9250826117615761176061170c565b5b828204905092915050565b600061177782610f96565b915061178283610f96565b9250828210156117955761179461134e565b5b828203905092915050565b7f5072696365206d75737420626520657175616c20746f206c697374656420707260008201527f6963650000000000000000000000000000000000000000000000000000000000602082015250565b60006117fc6023836114bc565b9150611807826117a0565b604082019050919050565b6000602082019050818103600083015261182b816117ef565b9050919050565b7f4275796572206d757374206265206e6f7420657175616c20746f204275796572600082015250565b60006118686020836114bc565b915061187382611832565b602082019050919050565b600060208201905081810360008301526118978161185b565b9050919050565b60006060820190506118b360008301866115cb565b6118c060208301856115cb565b6118cd6040830184611278565b94935050505056fea2646970667358221220673b6d6f353828b8ef96aa29dbf0ca774880f23149148896a8ae86235ff8c8f464736f6c63430008090033",
  "immutableReferences": {},
  "source": "// SPDX-License-Identifier: MIT OR Apache-2.0\npragma solidity ^0.8.3;\n\nimport \"@openzeppelin/contracts/utils/Counters.sol\";\nimport \"@openzeppelin/contracts/security/ReentrancyGuard.sol\";\nimport \"@openzeppelin/contracts/token/ERC721/ERC721.sol\";\n\ncontract NFTMarket {\n  using Counters for Counters.Counter;\n  Counters.Counter private _itemIds;\n\n  address payable owner;\n  uint256 public listingPrice = 0.025 ether;\n\n  constructor () {\n    owner = payable(msg.sender);\n  }\n\n  struct MarketItem {\n    uint itemId;\n    address nftContract;\n    uint256 tokenId;\n    uint256 price;\n    bool onSale;\n  }\n  mapping(uint256 => MarketItem) private idToMarketItem;\n\n  event MarketItemCreated(\n    uint indexed itemId,\n    address indexed nftContract,\n    uint256 indexed tokenId,\n    address owner,\n    uint256 price,\n    bool onSale\n  );\n\n  function createItem(address nftContract, uint256 tokenId, uint256 price) public payable {\n    require(price > 0, \"Price must be at least 1 wei\");\n    require(msg.value == listingPrice, \"Price must be equal to listing price\");\n\n    _itemIds.increment();\n    uint256 itemId = _itemIds.current();\n\n    idToMarketItem[itemId] = MarketItem(itemId, nftContract, tokenId, price, true);\n    \n    emit MarketItemCreated(itemId, nftContract, tokenId, msg.sender, price, true);\n  }\n  function getItemList() public view returns(MarketItem[] memory){\n    uint totalItemCount = _itemIds.current();\n    uint currentIndex = 0;\n    uint itemCount = 0;\n\n    for(uint i =0; i< totalItemCount; i++){\n      if(idToMarketItem[i + 1].onSale){\n        itemCount++;\n      }\n    }\n\n    MarketItem[] memory items = new MarketItem[](itemCount);\n    for (uint i = 0; i < totalItemCount; i++) {\n      if (idToMarketItem[i + 1].onSale) {\n        uint currentId = i + 1;\n        MarketItem storage currentItem = idToMarketItem[currentId];\n        items[currentIndex] = currentItem;\n        currentIndex++;\n      }\n    }\n    return items;\n  }\n  function getMyItemList() public view returns(MarketItem[] memory){\n    uint totalItemCount = _itemIds.current();\n    uint itemCount = 0;\n    uint currentIndex = 0;\n\n    for(uint i =0; i< totalItemCount; i++){\n      address itemOwner = IERC721(idToMarketItem[i + 1].nftContract).ownerOf(idToMarketItem[i + 1].tokenId);\n      if(itemOwner == msg.sender){\n        itemCount++;\n      }\n    }\n\n    MarketItem[] memory items = new MarketItem[](itemCount);\n    for (uint i = 0; i < totalItemCount; i++) {\n      uint currentId = i + 1;\n      address itemOwner = IERC721(idToMarketItem[i + 1].nftContract).ownerOf(idToMarketItem[i + 1].tokenId);\n      if (itemOwner == msg.sender) {\n        MarketItem storage currentItem = idToMarketItem[currentId];\n        items[currentIndex] = currentItem;\n        currentIndex++;\n      }\n    }\n    return items;\n  }\n  function getItemDetail(uint itemId) public view returns(MarketItem memory){\n    return idToMarketItem[itemId];\n  }\n  function buyItem(uint itemId) public payable {\n    // MarketItem memory currentItem = idToMarketItem[itemId];\n    uint256 royalty = (uint256(idToMarketItem[itemId].price) * 250) / 10000;\n    uint256 result = msg.value - royalty;\n    address from = IERC721(idToMarketItem[itemId].nftContract).ownerOf(idToMarketItem[itemId].tokenId);\n    require(msg.value == idToMarketItem[itemId].price, \"Price must be equal to listed price\");\n    require(from != msg.sender, \"Buyer must be not equal to Buyer\");\n    payable(from).transfer(result);\n\n    IERC721(idToMarketItem[itemId].nftContract).transferFrom(from, msg.sender, idToMarketItem[itemId].tokenId);\n    idToMarketItem[itemId].onSale = false;\n    payable(owner).transfer(royalty);\n  }\n  function changeOnSaleStatus(uint itemId, bool _onSale) public {\n    require(_onSale != idToMarketItem[itemId].onSale, \"Status must be not equal changing status\");\n    idToMarketItem[itemId].onSale = _onSale;\n  }\n  function changeSalePrice(uint itemId, uint256 _price) public {\n    require(_price > 0, \"Price must be at least 1 wei\");\n    idToMarketItem[itemId].price = _price;\n  }\n}",
  "sourcePath": "/Users/heegyeomyoon/nft-market/src/contracts/NFTMarket.sol",
  "compiler": {
    "name": "solc",
    "version": "0.8.9+commit.e5eed63a.Emscripten.clang"
  },
  "schemaVersion": "3.4.3",
  "updatedAt": "2021-10-22T16:05:43.618Z",
  "networkType": "ethereum",
  "devdoc": {
    "kind": "dev",
    "methods": {},
    "version": 1
  },
  "userdoc": {
    "kind": "user",
    "methods": {},
    "version": 1
  }
}